:040000006F208008E5
:10000400000000000000000090000020E804002030
:10001400A9BDF9F3900000200000000000000000DA
:10002400900000209000002000000000000000006C
:10003400900000200000000090000020000000005C
:1000440090000020900000209000002090000020EC
:1000540090000020900000209000002090000020DC
:1000640090000020900000209000002090000020CC
:10007400EC0500209000002090000020900000205B
:1000840090000020900000209000002090000020AC
:1000940001A0B717004041119387870398433AC6DC
:1000A40094433247E39CE6FE324541018280732744
:1000B4000080218B9387019001CB7327008098C324
:1000C40098435D9B731007800F10000037170040A2
:1000D40013070704930670052300D700930680FADC
:1000E4002300D7000F100000B716004003C6B60463
:1000F4001376F60DA385C60423000700F3260080BB
:100104009843218B558F7310078023A001900F1003
:100114000000137705026301071A37170040290707
:1001240003470700118B3DE773270080218B01CB28
:100134007327008098C398435D9B731007800F104A
:1001440000003717004013070704930670052300C7
:10015400D700930680FA2300D7000F100000B716CB
:10016400004003C6A600136646002385C60023008C
:100174000700F32600809843218B558F7310078066
:1001840023A001900F1000001307004B0100010091
:100194007D176DFF73270080218B01CB73270080AF
:1001A40098C398435D9B731007800F1000003717A6
:1001B400004013070704930670052300D700930635
:1001C40080FA2300D7000F100000B71600407D8985
:1001D4002394A60001000100010001002300070090
:1001E400F32600809843218B558F7310078023A03A
:1001F40001900F10000073270080218B01CB73271F
:10020400008098C398435D9B731007800F10000013
:100214003717004013070704930670052300D7001F
:10022400930680FA2300D7000F1000000F1000007F
:10023400B726004013061005A383C68023000700D9
:10024400F32600809843218B558F7310078023A0D9
:1002540001900F10000073270080218B01CB7327BE
:10026400008098C398435D9B731007800F100000B3
:100274003717004013070704930670052300D700BF
:10028400930680FA2300D7000F100000B716004031
:1002940003C6B60413660608A385C6042300070034
:1002A400732700809C43A18BD98F7390078023A070
:1002B40001900F100000828013770504630607166F
:1002C40037170040290703470700418B3DE7732791
:1002D4000080218B01CB7327008098C398435D9BDA
:1002E400731007800F10000037170040130707042E
:1002F400930670052300D700930680FA2300D700E5
:100304000F100000B716004003C6A60013660601CE
:100314002385C60023000700F32600809843218B21
:10032400558F7310078023A001900F10000013074E
:10033400007D010001007D176DFF73270080218B74
:1003440001CB7327008098C398435D9B731007808B
:100354000F100000371700401307070493067005B9
:100364002300D700930680FA2300D7000F10000063
:100374001376F50113660604B71600402394C600ED
:10038400010001000100010023000700F3260080A2
:100394009843218B558F7310078023A001900F1071
:1003A4000000130760046311E50473270080218BA8
:1003B40001CB7327008098C398435D9B731007801B
:1003C4000F10000037170040130707049306700549
:1003D4002300D700930680FA2300D7000F100000F3
:1003E400B7260040094689BD73270080218B01CBC5
:1003F4007327008098C398435D9B731007800F1088
:100404000000371700401307070493067005230004
:10041400D700930680FA2300D7000F100000B726F8
:1004240000401306200509BD73270080218B01CBF2
:100434007327008098C398435D9B731007800F1047
:1004440000003717004013070704930670052300C4
:10045400D700930680FA2300D7000F100000B716C8
:10046400004003D686001366060C2394C600F9B335
:100474004111814601468145114506C6A124F32751
:100484000080A18B9386019081CBF32700809CC2CE
:100494009C42DD9B739007800F100000B71700404B
:1004A40093870704130770052380E700130780FA76
:1004B4002380E7000F10000037170040034667044D
:1004C400136616002303C7042380070073270080E4
:1004D4009C42A18BD98F7390078023A001900F10A9
:1004E4000000B240410182804111814601468145AC
:1004F400114506C6C12A73270080218B938701907A
:1005040001CB7327008098C398435D9B73100780C9
:100514000F100000371700401307070493067005F7
:100524002300D700930680FA2300D7000F100000A1
:10053400B71600407D562396C60223000700F32613
:1005440000809843218B558F7310078023A001905E
:100554000F10000073270080218B01CB73270080CC
:1005640098C398435D9B731007800F1000003717E2
:10057400004013070704930670052300D700930671
:1005840080FA2300D7000F100000B716004003C6FE
:100594006604136616002383C6042300070073272A
:1005A40000809C43A18BD98F7390078023A0019076
:1005B4000F10000001A0BD473305F50201007D15B1
:1005C40075FD8280411122C426C206C6AA84014454
:1005D40063179400B240224492444101828005048E
:1005E4001305803E4204C13F4180DDB7B717004088
:1005F400130700032388E702854723ACF194828024
:10060400411106C6A92DFDBF23030480154723030A
:10061400E48001002302A480828083076480E3CE07
:1006240007FE23030480828083076480E3CE07FEF1
:1006340003454480828083076480E3CE07FE23025F
:10064400A4808280411126C44AC24EC006C61377D4
:10065400F50BAD47AA892E8995446306F700194521
:100664006537653F8D444E854537FD59FD146398C4
:100674003401B240A2441249824941018280135597
:1006840009011375F50F453F2209CDB7011126CC99
:1006940006CEB704080051371545BD3771376937A1
:1006A4002AC6A53F32459377150089EB13651500DB
:1006B4001375F50FF240E24405618280FD14E9FCF4
:1006C4000145CDBF397126DC4ADA4ED852D656D40C
:1006D4005AD25ED006DE62CE66CCB7E700E07D5724
:1006E40083AA070022C603AA470023A0E71823A26F
:1006F400E718B7170040130770052380E7041307B2
:1007040080FA2380E70483C74704930B75FFB684FC
:10071400E20793FBFB0F8546AA892E8B3289372487
:100724000040E187015763FA76016308D5008946E2
:10073400130700026313D5000157D98F93F7F70FFE
:10074400B71C00402382FC0411472303E4801305F3
:10075400F00F5D3D094CD135636D7C11B705070081
:10076400DA9537870700795563F2E504B387950076
:10077400636EF702370B0800A94733EB65016399F1
:10078400F90689E48144513D26850DA0DA850945A1
:10079400553D05090345F9FFFD14050B693D81C469
:1007A4009377FB0FFDF7DD3569FD7D55B7170040E5
:1007B400130770052380E704130780FA2380E704F6
:1007C40003C74704418B2382E704F250B7E700E0F4
:1007D40023A0571123A24711E25432445259C2595B
:1007E400325AA25A125B825B724CE24C21618280C3
:1007F400A5476395F90685691309F00FB3069900B7
:10080400B3742B01B6941349F9FFB3749900856B43
:1008140033796901416B9387F9FFB3F7270199E3B2
:1008240063FC340193D94900C147E3E637FF99BF1C
:100834000569C1697D19D9B71305800D63886901FC
:10084400130500026384790113051008CA85DD3B92
:10085400353D21DD4E99B3843441D9B7DA852D4530
:10086400D533CA94E30099F205097D3BA30FA9FE91
:10087400D5BF9387F9FF93F7F70F6361FC0C83C728
:100884001C0413073008631FF70437070800636B61
:10089400EB04B3079B00B706100063F5D704334B92
:1008A400EB0089476393F9068980D549E38C04EC0E
:1008B400DA850945413B11090327C9FF91472320E4
:1008C400E48003076480E34E07FE23033481FD17AD
:1008D400EDFBFD14110B81C49377FB0FE9FF7D330E
:1008E40071F5E1B5B717004003C75704B70708000F
:1008F4001377070219E3B78707007955E378FBEA12
:1009040033079B00E3FFE7F855B58547E382F9F227
:10091400DA852D45053B9389F4FFE38504E6293305
:1009240093F7390091EB832604800327090093078A
:100934004900E39AE6E43E89CE84F1BFB547639665
:10094400F9001305900BC93135BDB1471305B00A41
:10095400E38BF9FE99476391F904B7050800B36581
:10096400BB002D45C53181448D4BA1497539639632
:100974007401832704802320F9008504E39834FF5D
:100984008327048013172B01635507002312F900F2
:10099400D5BB2322F900FDB39D476399F902814534
:1009A4001305B0044531BD44232009002322090066
:1009B400FD599D3993F77400CA9703C70700FD14C6
:1009C400398D2380A700E39634FF6DBBA147639262
:1009D400F9046D398144630D0B008D479304C00302
:1009E4006308FB009304000563048B019304400433
:1009F4001375C507E30895D81945393139390545C3
:100A0400213126850D3909453D314931E31C05D68F
:100A140069BB91476399F90013056006F536F53E05
:100A2400130590090DB7E38F09D4F154A9BB19CD6F
:100A340091CD09CE81473387F500834607003307FC
:100A4400F50085072300D700E317F6FE828019C955
:100A540091C909CA910583A7C5FF11057D16232EE7
:100A6400F5FEC5BF828001C919C62A960505A30FE4
:100A7400B5FEE31DA6FE828081473307F500030718
:100A8400070019E33E8582808507C5BF01112E86C4
:100A940026CAAA84131506019305F004418122CCC9
:100AA40006CE32C6EF00F0512A8401C53246A6852F
:100AB400BD3F2285F2406244D2440561828085476D
:100AC40015C18DC105C28147B306F5003387F50012
:100AD40083C60600034707006398E6008507E3150D
:100AE400F6FE85473E8582808147EDBF9307F6FF7A
:100AF400BE952A966313C5008280FD1583C7150031
:100B04000505A30FF5FEFDB7AA87014581CF09CEE0
:100B14003E96850703C7F7FF6317B700E39BC7FE3D
:100B2400054582808280014582807971938741974F
:100B340022D4804306D626D24AD04ECE52CC56CAB0
:100B44005AC85EC65DCCB7C4C901014B9389C1962E
:100B54009384F437173A0000130A4A5A973A00006C
:100B6400938A8A5D17390000130949618357240069
:100B740085E35C44631B0B0023AAF196832BC4001A
:100B84002285EF0070505E84B9A82326FB00FDB7D0
:100B940083A7090082971C443307F5406376F50068
:100BA400032749001D8F2A9763E0E4089737000064
:100BB40023AC07588355240003450400974000E004
:100BC400E78060435C405844A1CB0C4403264900B1
:100BD400AE97BE8663E4B70063E4C700B386C7403C
:100BE40014C4228B3A8459F0973700009387C75472
:100BF4009C4B09476370F706F91717370000232544
:100C0400F754B250225492540259F249624AD24AD9
:100C1400424BB24B4561828063150B0023AAE196D7
:100C2400B1BF2326EB0099BF03274A0209CF63EF24
:100C3400A7003385A74083A70A016376F500973799
:100C4400000023A3A750228B404471BF032749000F
:100C5400BA97C5B79737000023A8074E5DB741116F
:100C640022C4173400001304A44F1C4006C626C235
:100C74004AC091C782979737000023A3074E97373E
:100C8400000083C7B767858B973400009384C466DC
:100C940095C397370000A383076683C7740015477D
:100CA400637AF700052B83C77400F5178A07A297A8
:100CB4009C4382971C4491C382971389019603270E
:100CC400090017360000034636479737000083C7EC
:100CD400A74693961700BA9683D60600C5CE9737D3
:100CE400000083C7674563E1C70C9737000023857D
:100CF40007441C40639507129737000083C7576069
:100D040091CF83C7740093F7F70F89EB97370000EF
:100D1400A388075E974001E0E78000609387C1964F
:100D24009C43638E070E9737000093872745DC4367
:100D340017370000232AF740CD3B973700009387ED
:100D4400E73BDC53E9CF173700001307E73E184BA6
:100D54009737000083C7D73B6363F70C83C77400DE
:100D64001547636EF70A9737000083C7675D918B59
:100D7400DDE7032609009736000083C6F63B63C609
:100D8400D70A2244B240924402494101175302E077
:100D94006700C3F3850793F7F70F97360000238D99
:100DA400F638E3E4C7F225BF86073E97835507006C
:100DB4002310070023940196938781979C4317354A
:100DC40000000345653713172500BA979C438297A3
:100DD40083D78196173700000347073693C7F7FF79
:100DE4007D8D93171700032709003E97835707004B
:100DF4005D8D2310A7009737000083C7E73391C7A1
:100E04008507173700002309F73217370000034717
:100E1400A7329737000083C73732E378F7ECB24044
:100E24002244924402494101828013971700329769
:100E3400035707006DF7850799B7AD6737C70040BB
:100E4400BD072326F7200F10000097370000938773
:100E5400A72EC84F83278726BD66BD0693C7F7FF15
:100E640099836A052326D7205D8D82804111B717A7
:100E74000040985F3AC6945F3247E39CE6FE3245F1
:100E8400410182801305F00F828001119737000021
:100E94009387C75222CC03A4070C26CA06CE2AC4C1
:100EA4002EC6854419E40145F2406244D2440561EA
:100EB40082808347910003471400858B6304F70005
:100EC4000044CDB719469305A10013052400C53E7F
:100ED400E31895FE0545C9BF138741A31C43930638
:100EE400001094C301000100010001001C4323A071
:100EF40007008346150003482500A2064208C2964F
:100F040003480500C296034835006208C29694D788
:100F14008346550003486500A2064208C29603486A
:100F24004500C296034875006208C296D4D783462A
:100F340095000348A500A2064208C296034885000E
:100F4400C2960348B5006208C29694DB8346D50076
:100F54000348E500A2064208C2960348C5000345BB
:100F6400F500C2966205AA96D4DB83C6150003C5B4
:100F74002500A2064205AA9603C50500AA9603C544
:100F840035006205AA9694CF83C6550003C5650053
:100F9400A2064205AA9603C54500AA9603C5750094
:100FA4006205AA96D4CF83C6950003C5A500A20600
:100FB4004205AA9603C58500AA9603C5B500620535
:100FC400AA9694D383C6D50003C5E500A2064205BC
:100FD400AA9603C5C50083C5F500AA96E205AE9698
:100FE400D4D3D443F59AD4C3D44393E61600D4C3DC
:100FF400944393E6160094C3BA879443D842058B6E
:1010040059E3984E01452300E6009843184F218385
:10101400A300E6009843184F41832301E600984358
:10102400184F6183A301E6009C43D84F2302E600D6
:10103400D84F2183A302E600D84F41832303E6005F
:10104400D84F6183A303E60098532304E600985322
:101054002183A304E600985341832305E6009853B3
:101064006183A305E600D8532306E600D853218301
:10107400A306E600D85341832307E600DC53E1834B
:10108400A307F600828001008DBF138781A3144358
:10109400411122C49C5E4AC006C6998326C2858B30
:1010A4003A84138941A3D1C79C5E9734000093848A
:1010B400A42493F7F7F99CDE17370000034727248D
:1010C40093070008631BF700832709009C4393F7E9
:1010D4000704173700002304F72283C7040093F79B
:1010E40007048DC39387C1969C438297973700006A
:1010F40023ACA72083C7040093F7F70B173700002E
:10110400230CF71E83C7440093F707049DE3854728
:1011140017370000A304F71E938741A49C43096773
:1011240098C7130700FC973600002389E61CD844AF
:10113400F8D31C40985F1183058B09CB985F3D9BC6
:1011440098DF054797360000238AE61A985F1D83C7
:10115400058B11CB985F1377F7F798DF854717371F
:101164000000230DF71883270900D8430583058B56
:1011740019C7D843759BD8C3D843799BD8C3B24009
:1011840022449244024941018280397106DE16DC10
:101194001ADA1ED82AD62ED432D236D03ACE3ECC43
:1011A40042CA46C872C676C47AC27EC0F93DF250BD
:1011B400E2525253C2533255A255125682567247C6
:1011C400E2475248C248324EA24E124F824F21612A
:1011D40073002030938741A494439737000093878A
:1011E400A71103C70700058B11CB9737000023878E
:1011F400071097370000A3830710828003C71700E6
:10120400058B65F7F85271FF83C75700DDB7138864
:1012140081A3032708001C5F9583858BD1E709C64A
:101224001C5BBD832300F60085CA83270800985BF6
:101234004607935767016356070093E707C0C20741
:10124400C18303970600C207C18709C7BA97094734
:10125400B3C7E7022390F60085CD834715008DCBF5
:101264009736000083C6A60993F6060413879700F1
:1012740089478DCA3A9503470500854699471376F1
:10128400F7066311D60262076187B947634C07000A
:10129400832708009C5FED838D8B17370000A30222
:1012A400F70681473E8582808547EDBF411122C400
:1012B40006C6138441A418402DE9AE877453FDFE7D
:1012C4003E85B2859737000023890702974001E0E5
:1012D400E780C0D9938781A39C43B70680009843D5
:1012E400558F98C3D857719BD8D797370000A387D9
:1012F400070097370000A38107001C40094798C3E3
:10130400144017370000130727FF83472700858BF6
:1013140089EB83473700858BD9C397370000238F28
:1013240007FCB2402244410182808D47631EF500D0
:10133400938781A39C43B70680009843558F98C335
:10134400D857719BD8D76DBF8547E31BF5FA54472F
:10135400F977FD17F58F5CC70F1000001C40096773
:1013640098C7130700F8173600002309E6F8138717
:1013740081A31043184231830D8B11E713076019C1
:10138400F8D3D4C7B5BF1842094631830D8B631512
:10139400C7001307E043EDB71307E01BD5B7FC52B2
:1013A400ADF741B75D71A2C4A6C22A8413068002B8
:1013B4002800AE849305100886C6CAC04EDE52DCEF
:1013C400EFF06FEA3545974001E0E780800613832C
:1013D40081A3832703009376F41F138EC1A423A44F
:1013E4000700984B938E41A4370FFCFF1367F70354
:1013F40098CBF84F130510F8B7020400137707E0F1
:10140400558FF8CF9843F576FD16758F98C398439A
:10141400B7063300930380251377F7E798C39843FF
:1014240011497D1F1377F7E71367071098C3032744
:101434000E008549930F80021C47D58F1CC783A7D4
:101444000E001307900D3400B8CB014793553700B5
:10145400A69583C7050013767700B3D7C740858B5D
:10146400E1C38327030083280E00239C07042390F1
:10147400070603A8C8021378D8FF23A6080383A885
:1014840007001378F70793F808F833E8080123A056
:10149400070103A847023368580023A2070383A85F
:1014A4000E00014823A2780603DA070663074803FF
:1014B40003A80703038A06001358F80062081358A8
:1014C400884163580A0103A807031358F8002380CE
:1014D400060103D807061378F80F03AA4806630623
:1014E4000A0003DA8705E37F49FB03A84702337840
:1014F400E80123A2070383870600635CF40003C8A2
:1015040005003396C9001346F6FF3376060123809F
:10151400C5003E8663D3A7002A861315860161851C
:1015240005071377F70F8506E312F7F3B640264451
:1015340096440649F259625A61618280938641A4B5
:101544009C42D84713161701635506029847131691
:101554001701635006027D57B8D7173700001307E9
:10156400A7BD584F0507173600002325E6BE1167AF
:1015740098C798470D83058B1DCB17370000034789
:10158400C7D713671700173600002308E6D61307DA
:1015940000F8173600002303E6D6214798C71387BF
:1015A40081A310435856719B1367170058D6984768
:1015B400058B0DC717370000034717D413671700AF
:1015C40017360000A30AE6D2054798C7138781A3FC
:1015D40010435856719B1367170058D698470983D0
:1015E400058B09E798470583058B21CF9847173664
:1015F4000000130666D0138581A30983058B63035A
:1016040007101841184331830D8B75EBAC4B184E02
:1016140093F5050203471700CDCD79EF1307700644
:10162400D8CF0347060013671700173600002305B9
:10163400E6CC114798C718415C57F19B93E7170014
:101644005CD79C4298479316370163D606029736B7
:10165400000083C626DEC18A17370000130707D6A9
:10166400C5CE034787071367070297360000238315
:10167400E6DC056798C798479316270163D10602ED
:1016840017370000034787C762076187635707005E
:101694000547973600002383E6C6096798C798472D
:1016A4009316070163D606029736000083C696D8C0
:1016B400858A17370000130767D0ADCE0347970715
:1016C4001367270097360000A386E6D6216798C7DC
:1016D400828029D785456315B7001307B00689B7FB
:1016E40089456315B7001307F0061DBF8D456315C3
:1016F400B700130730072DB71307500715B71307A3
:10170400600739BF03473600136717001736000018
:10171400A305E6BE094739BF834687070946BD8A44
:101724006388C600034787078D463D8BE313D7F4D0
:10173400114725BF83469707918AC9DA034797075C
:101744001367870041B7397106DE16DC1ADA1ED832
:101754002AD62ED432D236D03ACE3ECC42CA46C84D
:1017640072C676C47AC27EC0D13BF250E252525362
:10177400C2533255A255125682567247E247524816
:10178400C248324EA24E124F824F21617300203064
:10179400938741A498438567938707777CD393877E
:1017A400C1A49C4383A607091396560063580600F8
:1017B40083A6070913966600634406007453FDF27A
:1017C400828061C1AA870145DDCD8D07C207C1832F
:1017D400F19BC207C18313074003636BF7021387AE
:1017E40041AD08431387C1AC14436396A60217376F
:1017F40000001307A790185B014551C74111C207A8
:1018040006C60545DD8D0297B2400145410182803F
:10181400138701ADF9B70357650035E30357450056
:10182400636FF704B306F7402146637CD6020328AE
:101834000500938687001D8FAA966117173600004E
:101844000356E68F2392E60023A0060123930600A5
:1018540014C12312F500130786FF97360000239066
:10186400E68E2313B5009735000083D5458DB387E5
:10187400F540173700002314F78C210582800841B6
:10188400ADB701458280828009CD938741AD03A322
:1018940007009387C1AC83A8070081469A8763E356
:1018A4001701828003A807006369F50A6367A80A21
:1018B40013878700E367E5FE03D667002167050702
:1018C4006317E60003C7C1A005072386E1A0973587
:1018D40000009385658603D6470003D765002393EC
:1018E4000700329742074183173500002319E58426
:1018F40063886702138501AD08416303F50203D5CC
:10190400660019ED83D7460023A0060121073E9601
:1019140021062392C600973700002392E782B687F8
:101924009843E30017F9938601AD9442E30BD7F68D
:1019340083566700BDF683D6470003564700184315
:10194400A106B2962392D70098C383D76500A10756
:10195400172700002315F77E8280BE86C28781B7D1
:101964000327851163020712411122C406C6834767
:10197400C5008345E5042A8493F7C70F2306F500C1
:10198400834697000356C70013958601618563F269
:10199400C508635B05060345870093F6F607A304B1
:1019A400D700054693E627006314C50093E61700A5
:1019B4002306D4005C4389075CC3A30AB40003254F
:1019C40004112E864C430905EFF06F86832784119A
:1019D40003465401D44303D7C700B296118FD4C32E
:1019E4002396E7008947A30DF40003476403972770
:1019F400000083C7C7716378F7048347C40093E783
:101A040007012306F40081A093E717002306F400DE
:101A14006DB79376F60F635D050203458700854530
:101A240013E627006314B50013E617002306C40069
:101A3400A30AD400A30407008547A30DF400832759
:101A440084119C43DDF3B24022440145410182806C
:101A540093E717002306F400A30AD400A3040700A5
:101A6400032504114C430905EFE07FFC832784110F
:101A740003465401D44303D7C700B296118FD4C38D
:101A84002396E7008D4755BF05458280938741AE75
:101A94009C43411122C406C6858B2A84C5EF416547
:101AA400130525F597F001E0E78080D445C5834709
:101AB400A5002315F50083270412BDE72320A412F3
:101AC4002322A41285472311F4042320050083470D
:101AD400640154412316F5000347D4002304E500B0
:101AE4000547A304E500173700001307E780184FE4
:101AF4001385170215811C437D151375F50F9CC2C0
:101B04005C43DCC21C479CC65C47DCC61C4B9CCABD
:101B14005C4BDCCA1C4F9CCE5C4FDCCE19CD93864B
:101B2400060213070702C1BF8327441288C38357E1
:101B340024042322A412850779B79737000083D79A
:101B44006788850717370000231EF786B2402244B2
:101B5400410182808347C40023090400054593C7DB
:101B640047002306F400DDB78347850193F7E70FA9
:101B7400C5EF83479501CDEB034625018346C50098
:101B840009CA83456503172700000347575863E7CD
:101B9400E50013F7060151CB014709C6C18A035773
:101BA400651C81C68356A51C369741C31307C7120B
:101BB400172500000355055DB335A70237460F000E
:101BC400411113060624814622C426C206C67D544A
:101BD4003305A702970000E0E780806097270000A4
:101BE40083C75753B384A700972700009387077DC3
:101BF40003A787098327070963F387003E841843F3
:101C040075FB9387C1969C43829781476364A400C4
:101C1400B307A440B2402244B3B7970093C7170058
:101C240092443E854101828081473E85828093872C
:101C340041A498437C53FDFF8280797126D206D655
:101C440022D44AD04ECE52CC56CA5AC85EC6834716
:101C5400550303447513AA843E941374F40F930735
:101C6400400263F687001304B4FD1374F40F03AA4F
:101C7400841383AAC413A38B841222865285D68527
:101C8400970000E0E780204E058915E503CBD412C8
:101C940001498149337B6403930B50024A86528580
:101CA400D685970000E0E780004C058915C563914F
:101CB40069031374F90F238B8412B2502254925483
:101CC4000259F249624AD24A424BB24B4561828080
:101CD4008509E20993D989410509E31179FDE1BF39
:101CE4008327850903560504797193D60701BD8EB0
:101CF400C206C182358E1357764093575640898B5E
:101D0400058B5D8F93573640918B5D8F93571640AB
:101D1400A18B5D8F93171600C18B5D8F93173600CF
:101D240093F707025D8F931756009355860093F738
:101D340007041E065D8F1376F60F518F93D7554017
:101D440013D63540118A898BD18F13D67540D18F24
:101D540013D61540218AD18F13961500418AD18F4D
:101D64001396350013760602D18F13965500137619
:101D740006049E05D18F93F5F50FCD8FA207454636
:101D84005D8F3307C70222D42A8426D252CC56CA86
:101D9400032A8413832AC4135AC806D636974207E3
:101DA400418393577740135557400989858BC98FD1
:101DB400135537401189C98F135517402189C98F8D
:101DC400131517004189C98F1315370013750502C0
:101DD400C98F1315570093558700137505041E0703
:101DE400C98F1377F70FD98F13D5354013D75540C3
:101DF4001189098B498F13D57540498F13D5154027
:101E04002189498F139515004189498F1395350010
:101E140013750502498F13955500137505049E0526
:101E2400498F93F5F50F4D8F2207D98FB387C702DA
:101E34004AD04ECE5EC662C4B697C207C18313D7DA
:101E4400774013D557400989058B498F13D53740FF
:101E54001189498F13D517402189498F139517008C
:101E64004189498F1395370013750502498F1395DE
:101E7400570093D58700137505049E07498F93F780
:101E8400F70FD98F13D5354013D755401189098BD6
:101E9400498F13D57540498F13D515402189498F32
:101EA400139515004189498F139535001375050263
:101EB400498F13955500137505049E05498F93F5B5
:101EC400F50F4D8F2207D98FB387C702130650022F
:101ED4005285D685B697BD8E93940601C18033F69C
:101EE400C402137BF60F970000E0E780C027058942
:101EF4000DED8347D41201498149B3849702130C31
:101F04005002C1804A865285D685970000E0E7805A
:101F140080250589937BF90F11C5638634038509F0
:101F240093F9F90F0509E31F89FD230B6413B250DC
:101F3400225492540259F249624AD24A424BB24B59
:101F4400224C456182805E8BCDB7797122D406D64E
:101F540083C735002E8423160100A307F10083C72D
:101F64004500100802C02307F10083C755008A8585
:101F740002C2A306F10002C402C802CA02CC02CE05
:101F8400EFE09FF50347F101834704000145631027
:101F9400F7020347E1018347140001456319F70081
:101FA4000345D101834724001D8D13351500B2501C
:101FB40022544561828001119727000093870740CE
:101FC40022CC03A4870C26CA4AC84EC606CEAA84CD
:101FD40013092500854915C083C71400034734003D
:101FE400858B6304F700405CFDB7194693054400F4
:101FF4004A85EFE0DFACE31835FF2285F240624406
:10200400D2444249B24905618280411197270000B8
:102014009387C73A22C403A4870C26C24AC006C6C3
:1020240093042500054901E82285B24022449244E4
:10203400024941018280A6851305A4023937E305CC
:1020440025FF405CCDB741119727000093870737E0
:1020540022C403A4870C26C24AC006C693042500E2
:10206400054901E82285B2402244924402494101D3
:102074008280A6851305A401C93DE30525FF405CC4
:04208400CDB70000D4
:1020880097110020938101D017610020130101F7F7
:102098001305400097E5FF1F938545F617060020B6
:1020A800130606FE63FAC5008322050023A0550027
:1020B80011059105E3EAC5FE174502001305C5CCD5
:1020C80097050020938505FC1386C18F63FAC50028
:1020D8008322050023A0550011059105E3EAC5FEFA
:1020E80013850190972500209385453F6377B500B8
:1020F800232005001105E36DB5FEFD42739002BC77
:102108008D4273904280930280087390023097E268
:10211800FF1F9382A2EE93E232007390523037177A
:102128000040930770052300F704930780FA230003
:10213800F7040F1000003C47B70600FAE116F58FC8
:10214800B70600069506D58F3CC7973200009382E4
:10215800C2AA739012347300203019CA9307000280
:10216800918F6348F000011633D5C5000147BA8541
:10217800828033D7C5003355C500B395F5004D8D22
:10218800FDB719CA93070002918F6348F000011642
:10219800B315C50001473A8582803317C500B3954A
:1021A800C5003355F500C98DFDB701CE9307000270
:1021B800918F6349F000011613D7F54133D5C54017
:1021C800BA85828033D7C5403355C500B395F5002D
:1021D8004D8DFDB7AA882E8332872A88AE876396ED
:1021E800062097350200938525D56371C30CC16617
:1021F8006377D60A9336061093B616008E063355C3
:10220800D600AA9583C5050013050002AE96B3054E
:10221800D540630BD500B317B300B3D6D800331736
:10222800B600D58F3398B8009355070133D3B7025A
:10223800131607014182B3F7B7021A85B30866027D
:102248009396070193570801D58F63FC1701BA9736
:102258001305F3FF63E7E70063F517011305E3FFD1
:10226800BA97B3871741B3D8B70242081358080181
:10227800B3F7B702B3061603C2073368F800C68778
:10228800637BD8003A989387F8FF6366E800637425
:10229800D8009387E8FF42055D8D81458280370528
:1022A8000001E146E37DA6F4C14691BF814609CA13
:1022B800C167637FF6089336061093B616008E063C
:1022C800B357D600BE9583C70500B697930600029C
:1022D800B385F6406395F608B307C3408545935820
:1022E800070133DE170313160701418293560801CD
:1022F800B3F7170372853303C603C207D58F63FC90
:102308006700BA971305FEFF63E7E70063F5670008
:102318001305EEFFBA97B387674033D31703420814
:1023280013580801B3F71703B3066602C2073368E8
:10233800F8009A87637BD8003A989307F3FF63669F
:10234800E8006374D8009307E3FF42055D8D82803F
:10235800B7070001E146E375F6F6C14695B73317AE
:10236800B600B356F300135507013313B300B3D7C0
:10237800F800B3E7670033D3A602131607014182BA
:102388003398B800B3F6A602B3086602939506011F
:1023980093D60701CD8E9A8563FC1601BA969305EC
:1023A800F3FF63E7E60063F516019305E3FFBA96CA
:1023B800B3861641B3D8A602C207C183B3F6A602F4
:1023C80033061603C206D58FC68663FCC700BA97C4
:1023D8009386F8FF63E7E70063F5C7009386E8FF95
:1023E800BA97C205918FD58DDDBD63E1D514C1675C
:1023F80063FFF60213B70610133717000E07B3D59D
:10240800E60097370200938727B3AE9783C7070084
:10241800BA9713070002B305F7406311F7020545A1
:10242800E3EE66E633B5C800133515008280B707BA
:1024380000016147E3F5F6FC4147D1B73357F60091
:10244800B396B600D98E3357F3003313B300B3D71E
:10245800F800B3E7670013D30601B35E6702139869
:102468000601135808013316B60033776702330E96
:10247800D8031315070113D70701498F7685637CA5
:10248800C70136971385FEFF6367D7006375C701D9
:102498001385EEFF36973307C741335E6702C207DD
:1024A800C183337767023308C8034207D98F72871D
:1024B80063FC0701B6971307FEFF63E7D70063F5D0
:1024C80007011307EEFFB6974205416E598D930633
:1024D800FEFF3377D500B3870741F18E1358050106
:1024E80041823303D702B306D8023307C702330841
:1024F800C8023306D7001357030132976373D70016
:10250800729893560701C29663E0D702E397D7D82B
:10251800C167FD177D8F42073373F300B398B80086
:102528001A978145E3FCE8D67D1585BB81450145B1
:1025380082803288AA872E876393061A973802000A
:102548009388889F63F6C50AC166637CD60893366C
:10255800061093B616008E063353D6009A9883C891
:10256800080013030002C696B308D340630BD300D8
:1025780033971501B356D50033181601558FB31785
:10258800150113560801B356C702131508014181F6
:102598003377C702B386A6029315070113D707013D
:1025A8004D8F6378D7004297636507016373D7003F
:1025B8004297158FB356C7023377C702B386A60270
:1025C800C2074207C183D98F63F8D700C29763E572
:1025D800070163F3D700C297958F33D5170181455B
:1025E800828037030001E146E37866F6C146ADB75D
:1025F800814609CA41676374E6069336061093B6A6
:1026080016008E063357D600BA9803C708003697C7
:1026180093060002B388E640639AE6043387C54010
:10262800935508013356B70213150801418193D613
:1026380007013377B7023306A6024207558F63783E
:10264800C7004297636507016373C7004297118FFC
:10265800B356B7023377B702B386A60295B73707E2
:102668000001E146E370E6FAC14669BF3318160176
:10267800B3D6E500B3171501B39515013357E50037
:10268800135508014D8FB3D5A60213130801135330
:102698000301B3F6A602B3856502139606019356A5
:1026A8000701D18E63F8B600C29663E5060163F3AD
:1026B800B600C2968D8E33D6A60242074183B3F682
:1026C800A60233066602C206558F6378C700429792
:1026D800636507016373C7004297118F91B763ED74
:1026E800D516416863F7060513B8061013381800A5
:1026F8000E0833D30601973802009388E8839A9826
:1027080083C8080013030002C298330813416319F1
:10271800130363E4B600636BC5003306C540B38694
:10272800D5403337C500B2873387E6403E85BA8542
:102738008280B70800016148E3FD16FB414855BF98
:10274800B3571601B3960601DD8E33D7150113DE94
:102758000601335FC7031393060113530301B397AD
:102768000501B3551501DD8D93D705013316060113
:10277800331505013377C703B30EE3034207D98F37
:102788007A8763FCD701B6971307FFFF63E7D70083
:1027980063F5D7011307EFFFB697B387D741B3DEC9
:1027A800C703C205C181B3F7C703768E3303D303CA
:1027B800C207DD8D63FC6500B695138EFEFF63E7E7
:1027C800D50063F56500138EEEFFB69593170701E4
:1027D800416FB3E7C701B38565401303FFFF33F7C4
:1027E8006700135E0601C18333736600B30E670288
:1027F800338367023307C703B387C703330E670002
:1028080013D70E01729763736700FA971353070182
:102818009A9741637D13337767004207B3FE6E00D2
:10282800769763E6F500639BF5006379E500330668
:10283800C7403333C7009A963287958F3307E540F0
:102848003335E5009D8D898DB39815013357070100
:1028580033E5E800B3D505018280397101436EC6BE
:1028680019A0397141536AC866CA62CC5ECE19A0F4
:10287800397101535AD056D252D44ED64AD826DA94
:1028880022DC06DE33016140828241114AC026C241
:1028980022C406C68282B24D4101024D924C224C9E
:1028A800B24B4101024B924A224AB24941010249C4
:1028B80092442244B24041018280B717004003C7C6
:1028C80077051377E70FA38BE704B71700401307C3
:1028D80000F8A38DE704B71700403D47238CE704B1
:1028E800B717004013075003A38CE7048280B7177B
:1028F80000409387E70283C707000D8993F7C70F46
:1029080033E7A700F3270080A18B9386019081CB42
:10291800F32700809CC29C42DD9B739007800F10B8
:102928000000B7170040938707041306700523803B
:10293800C700130680FA2380C7000F10000037165F
:1029480000402307E60223800700732700809C428B
:10295800A18BD98F7390078023A001900F100000DE
:10296800828041112A838148930E407E130F0019FB
:10297800930F4006131803011358080163E50E1757
:102988001303001933736502854E0D4FA14FFD42A5
:1029980063E4BE187D16B2987946C20893D8080138
:1029A8003307C70213D61700BE07C207C183329781
:1029B8006146B3F6C60213068070B386C602369720
:1029C8004207D98F371700401307F70283460700DD
:1029D80093F60608A307D1000346F10083460700D3
:1029E80093F60608E314D6FE0347F10009EB371700
:1029F80000401307F7028346F10063850616732724
:102A08000080218B93860190631D07160F1000002C
:102A18003717004013070704130670052300C70083
:102A2800130680FA2300C7000F1000003716004075
:102A3800232A1603B715004003C5150313064603DA
:102A480013650508A388A50223000700F325008065
:102A58009842218B4D8F7310078023A001900F108F
:102A680000003715004091651305C503FD15184290
:102A780003280500334707016D8F75FB7327008016
:102A8800218B01CB7327008098C298425D9B7310FD
:102A980007800F10000037170040130707041306BC
:102AA80070052300C700130680FA2300C7000F1023
:102AB8000000371600405CDAB717004003C617035A
:102AC80013660604A388C702230007007327008043
:102AD8009C42A18BD98F7390078023A001900F107F
:102AE8000000410182807D13336EE3031308E01672
:102AF800630E0E00336EF3031308D01663080E003E
:102B080013783300133818001308D816469893180A
:102B1800080193D80801B9BD639AE5030548630D18
:102B28000300130E4006337EC503014863060E00FA
:102B3800137835001338180071084698FD15931856
:102B48000801C20593D80801C18199B513F8150089
:102B580063F4BF007908D5B7338802414208135897
:102B68000801E1BF8346070093F60608A307D100D2
:102B78000346F1008346070093F60608E314D6FEE1
:102B88009DBD7327008098C298425D9B7310078093
:102B9800B5BD5971DEC686D6A2D4A6D2CAD0CECECD
:102BA800D2CCD6CADAC8E2C4E6C2EAC06EDEAA8BC4
:102BB80002D6EF00101EF3270080A18B138D019021
:102BC80091CBF32700802320FD0083270D00DD9B98
:102BD800739007800F100000371700401307070491
:102BE800930770052300F700930780FA2300F70086
:102BF8000F100000B717004003C6F7021376760FD0
:102C0800A387C70203C6F70213668600A387C70215
:102C1800230007007327008083270D00A18BD98F1D
:102C28007390078023A001900F100000F327008005
:102C3800A18B91CBF32700802320FD0083270D0073
:102C4800DD9B739007800F100000B71D0040938D27
:102C58000D04130770052380ED00130780FA238005
:102C6800ED000F100000371700400346E702137607
:102C7800C60F2307C7020346E70213661600230799
:102C8800C70223800D007326008003270D00218BC7
:102C9800518F7310078023A001900F1000001306B6
:102CA80080C13346C5021167930A5002B7450F0029
:102CB800130707E8938505248544B39474018D842C
:102CC8008569938909FA130C60FBB3997901014A64
:102CD800014B13097005130480FAB30A5603B3476E
:102CE800E5023D67130707A63345B5023EC69305BF
:102CF8000010B3CAEA02B384C402B30750413ECC01
:102D0800330C86031306A0AAB389A902B384C402AC
:102D1800B347EC02B3C9B9023ECAB3C4E4029397FD
:102D28003900B71900403EC89389390573260080D9
:102D3800218A11CA732600802320CD0003260D00A6
:102D48005D9A731006800F100000930770052380AA
:102D5800FD0023808D000F10000003C609001376C4
:102D6800860F2380C90003C6090013661600238056
:102D7800C90023800D00F325008003260D00218A59
:102D88004D8E7310068023A001900F100000371C91
:102D98000040130C0C05916C73260080218A11CA1F
:102DA800732600802320CD0003260D005D9A731042
:102DB80006800F100000930770052380FD00238014
:102DC8008D000F10000003C60900A16513660602F6
:102DD8002380C90003560C003366960142064182DF
:102DE8002310CC0003560C004D8E2310CC002380FA
:102DF8000D00F325008003260D00218A4D8E7310E7
:102E0800068023A001900F10000003C60900137666
:102E180006026305063E03C60900218A6DDE6810B6
:102E2800452F73260080218A11CA7326008023202B
:102E3800CD0003260D005D9A731006800F10000068
:102E480023802D0123808D000F10000003C6090088
:102E5800A1651376F60D2380C90003C60900136621
:102E680006022380C90003560C0033669601420609
:102E780041822310CC0003560C004D8E2310CC0049
:102E880023800D00F325008003260D00218A4D8E36
:102E98007310068023A001900F10000003C60900DC
:102EA800137606026308063803C60900218A6DFEF8
:102EB80097D0FF1FE780A01D2A8632CE97D0FF1F2C
:102EC800E780E01C7246E30AC5FE03560C00325543
:102ED80033669601420641822310CC00112F03C6A7
:102EE8000900218A6DDE3716004083550C00034522
:102EF800260511667D16F18D3306C502B247B295D7
:102F08009D8D63D5BA00E24763C2F5360946637101
:102F1800663773260080218A11CA73260080232011
:102F2800CD0003260D005D9A731006800F10000077
:102F380023802D0123808D000F10000003C6090097
:102F480093F5FB0F1376860F2380C90003C609008B
:102F58004D8E2380C90023800D0073250080032631
:102F68000D00218A498E7310068023A001900F104E
:102F7800000003C609001D8A63197637732600808E
:102F8800218A11CA732600802320CD0003260D0054
:102F98005D9A731006800F10000023802D01238096
:102FA8008D000F10000003C6090011651376F60D99
:102FB8002380C90003C60900136606022380C900DE
:102FC8003716004083550605C98D2318B604835566
:102FD80006052165C98D2318B60423800D00F32545
:102FE800008003260D00218A4D8E7310068023A0D1
:102FF80001900F10000003C6090013760602630E45
:10300800063003C60900218A6DDE6810D1237326B5
:103018000080218A11CA732600802320CD00032650
:103028000D005D9A731006800F10000023802D019B
:1030380023808D000F10000003C609001165137668
:10304800F60D2380C90003C6090013660602238013
:10305800C9003716004083550605C98D2318B604E4
:10306800835506052165C98D2318B60423800D00F4
:10307800F325008003260D00218A4D8E73100680EB
:1030880023A001900F10000003C609001376060262
:103098006301062C03C60900218A6DFE97D0FF1F25
:1030A800E780E0FEAA8C97D0FF1FE78040FEE30C84
:1030B80095FF37160040835506051165C98D3255B1
:1030C8002318B604352303C60900218A6DDE73264A
:1030D8000080218A9385019001CA7326008090C1DF
:1030E80090415D9A731006800F10000023802D0117
:1030F80023808D000F10000003C609001376F60D1B
:103108002380C90023800D00732500809041218A07
:10311800498E7310068023A001900F100000371607
:1031280000403715004013060605035606000348FD
:10313800250511657D15698E3305A802C2472A96B3
:103148001D8E1305800C6352C0243306A602334635
:103158009602050609453346A602371500401305B1
:10316800C5026352C02A035505001308F00F1581E4
:1031780032956358A8320946637F4621F3270080B9
:10318800A18B81CBF32700809CC19C41DD9B739070
:1031980007800F100000B717004093870704130734
:1031A80070052380E700130780FA2380E7000F10DB
:1031B8000000371700408356C70209660116D18EF2
:1031C8002316D70223800700732700809C41A18B18
:1031D800D98F7390078023A001900F100000B6507C
:1031E800265496540659F649664AD64A464BB64B73
:1031F800264C964C064DF25D6561828073260080F0
:10320800218A11CA732600802320CD0003260D00D1
:103218005D9A731006800F10000023802D01238013
:103228008D000F10000003C60900136606022380F4
:10323800C90075BE73260080218A11CA73260080D2
:103248002320CD0003260D005D9A731006800F1011
:10325800000023802D0123808D000F10000003C67D
:103268000900136606022380C90019B9E3130BCAC3
:10327800D247050B139615003346F602137BFB0F56
:103288006353B006050689453346B602F325008028
:10329800A18991C9F32500802320BD0083250D0055
:1032A800DD99739005800F10000023802D01238085
:1032B8008D000F100000371500408355C5022E966B
:1032C800420641822316C50223800D00F3250080A3
:1032D80003260D00218A4D8E7310068023A00190CD
:1032E8000F10000055BC7D1679BF73260080218A17
:1032F80011CA732600802320CD0003260D005D9A95
:10330800731006800F10000023802D0123808D008C
:103318000F10000003C6090025B973260080218A12
:1033280011CA732600802320CD0003260D005D9A64
:10333800731006800F10000023802D0123808D005C
:103348000F10000003C60900136606022380C90097
:1033580069B173260080218A11CA73260080232050
:10336800CD0003260D005D9A731006800F10000033
:1033780023802D0123808D000F10000003C6090053
:10338800136606022380C900D5B13306A602334668
:1033980096027D16C1B373260080218A01CA73265E
:1033A800008090C190415D9A731006800F10000054
:1033B8003716004013060604130570052300A600FF
:1033C800130580FA2300A6000F10000037180040EC
:1033D8000355C802856881181375F50F3365150103
:1033E8002316A80223000600732500809041218A35
:1033F800498E7310068023A001900F100000050A63
:10340800137AFA0F25B251CE035505003308C04090
:10341800158163580509094663734605F32700803B
:10342800A18B81CBF32700809CC19C41DD9B7390CD
:1034380007800F100000B717004093870704130791
:1034480070052380E700130780FA2380E7000F1038
:103458000000371700408356C702FD8A95B37326CC
:103468000080218A01CA7326008090C190415D9A2C
:10347800731006800F10000023802D0123808D001B
:103488000F100000371500400356C50205680118E3
:103498001376F60F336606012316C50223800D0046
:1034A800A1B7F3270080A18B81CBF32700809CC1B3
:1034B8009C41DD9B739007800F100000B7170040F8
:1034C80093870704130770052380E700130780FA22
:1034D8002380E7000F100000B716004003D7C6028C
:1034E80016063297420741832396E602E1B99147CF
:1034F80063E6B70697270200938707F18A05BE950A
:1035080098413E97B71700409387470B0287984327
:103518001345F5FF698F98C3B71700409387070BCA
:103528009843698F98C3B71700409387070A984351
:10353800798D88C3828094431347F5FFF98E94C32D
:10354800B71700409387070B9443C98E94C3B717E6
:1035580000409387070A9443758F98C382809843E5
:10356800498F98C3B71700409387070B98431345B3
:10357800F5FF45BF94431347F5FF758F98C3B717F9
:1035880000409387070A9843498FC1BF9843498FE2
:10359800F5B7B717004003D78700931707011377CC
:1035A8000704C18309EBFD8B3755E8011305058036
:1035B8003345F5028280216513F7070C9306000452
:1035C800130505D0E318D7FEFD8B37459C1CF9BFC2
:1035D80037E700E01C435443A183E206D58F1CC1A2
:1035E800FD572320F7182322F7180F1000008280B8
:1035F80013178500B7E700E023A0E710618123A235
:10360800A7108280B7F700E08847CC478280411135
:1036180022C406C62A84B53F2947B307E502B2404B
:103628008D83B3D7870222449507B3D7E70237378C
:103638000040C207C1832316F740410182807165AB
:1036480041111305052006C6D937B73700401307BF
:1036580070F82381E740B73700400D47A381E74062
:10366800B737004013070004A380E740B73700408E
:1036780005472387E740B24041018280411106C6D1
:1036880083A7019191C3829783A7C19091C3829721
:1036980017F7FF1F035747EF9307C01263F6E704B6
:1036A80097F6FF1F83D666EE1306B0126361D60441
:1036B80003A6819011C6B2401305C01241010286CB
:1036C8003385D740E5473305F5020507158F4207CF
:1036D800418309839307F7FF3E953345E502137548
:1036E800F50FB2404101828013054006DDBF014558
:1036F800CDBF2D4525EFDC41411122C426C206C6A7
:1037080003C7070083C717003284B684A207D98F7E
:103718000D67130797A1639AE7028D3797F7FF1F85
:10372800938767E603C707006374E5002380A70053
:1037380083C7070005472390E4002300F4000145F0
:10374800B24022449244410182800D67130787905A
:103758002945E397E7FECC4589472390F6000946BB
:10376800228597D0FF1FE780402CD1BF8280DC41A3
:10377800411122C406C626C203C8070083C7170022
:103788002944A207B3E707010D6813082890639638
:1037980007038547B284EF70600D2A8419ED03A7EB
:1037A800419101CF83C7140083C60400A207D58FB7
:1037B80093B71700138517000297B2402285224459
:1037C80092444101828083474500858BADC7011132
:1037D80022CC2A8403552500938581AF06CEEF704D
:1037E800A003058929C503552400014781460546DC
:1037F800ED45EF60D03C2AC61DC997F7FF1F83D758
:10380800C78B2314F10085472315F10097F7FF1F95
:1038180083C767D72300F5000355240001462C0011
:10382800EF70705C09C5ED452800EF601051F2405B
:10383800624405618280828041654111938581AF30
:103848007D1506C6EF80B049B24097F6FF1F9386F4
:1038580066834146954517F5FF1F130565834101AA
:103868006F80103D23AAA190828085476318F502D6
:10387800834706002382F19017F7FF1F0347A7D05D
:103888006370F702411117050000130505F406C619
:10389800EFA0307FB2400145410182800945828016
:1038A8000145828089476305F50263EBA70011EDA6
:1038B80097F7FF1F83C727CD2380F5000145828036
:1038C8008D47630EF5000945828083C74190EDB7A7
:1038D80097E7FF1F83D7677C2390F500C5B797F755
:1038E800FF1F83D727CA2392F50097E7FF1F938707
:1038F800277A03D7A70283D7A7032390E50023914C
:10390800F50085472383F50055BF411106C6BD3331
:1039180097F7FF1F938727C703C70700637AE50058
:103928002380A70017050000130525EAEFA070758E
:10393800B240014541018280C167F917630CF50265
:10394800411122C406C685472A84639AF500228558
:103958002244B240938581AF41016F805038894736
:103968006396F5008545EFA0506C75D1B2402244AE
:103978004101828082803285D041411106C683454B
:103988001600034806000D66A205B3E50501139865
:103998000501135808411306A6A2634906030D66DC
:1039A800130626A26359060375761306C65DB295FB
:1039B800C205C18119466364B602172802001308BC
:1039C800E8A58A05C2959041429602860D661306BF
:1039D80006A5630DC81023900600A94525A01D461D
:1039E8009D456361E6022146198E63F3C7003E8652
:1039F8002390C60093858191BA9597D0FF1FE780E1
:103A0800C0028145B2402E85410182802D469D45E8
:103A1800E36AE6FE3146198E63F3C7003E862390BB
:103A2800C60097250200938525A8F9B731469D451C
:103A3800E36AE6FC3546198E63F3C7003E86239099
:103A4800C60097250200938525A57DB741469D456B
:103A5800E36AE6FA4546198E63F3C7003E8623906B
:103A6800C600972502009385E5A179B741469D4593
:103A7800E36AE6F84546198E63F3C7003E8623904D
:103A8800C600972502009385A59EBDB741469D4572
:103A9800E36AE6F64546198E63F3C7003E8623902F
:103AA800C600972502009385659BB9B741469D4599
:103AB800E36AE6F44546198E63F3C7003E86239011
:103AC800C60097250200938525983DB735469D4544
:103AD800E36AE6F23946198E63F3C7003E862390FF
:103AE800C600972502009385259539B719469D4547
:103AF800E36AE6F03386E54063F3C7003E86239029
:103B0800C60097F5FF1F938565A8FDB597E6FF1FCB
:103B18009386065D4146CD4517E5FF1F1305055DF4
:103B28006F80101182802A8783C7819203A5C19272
:103B380083C6718299E301458280035605006316A6
:103B4800E60003466500E309D6FEFD1793F7F70F75
:103B58002105CDB7B2862E86AA8517250200130542
:103B6800A5956FF0314F0111930500030D4506CE61
:103B7800EF30E07F930500051145EF30407F930556
:103B8800C0030545EF30A07E85471306F100854543
:103B980013055030A307F100EF700153F24005619F
:103BA80082808547631AF5001166130686A9894540
:103BB80003C5C1936F10405A89476317F5008945BB
:103BC80003C5C1936F10807A828085476398F5009A
:103BD80019E2238AB1922388C192828009476399A6
:103BE800E50019E6238AF19203D521936F00300886
:103BF8008280011122CC06CE83A741922E8499C7D8
:103C08009C4789C76244F240056182876C001305AE
:103C18007040EF50D142324622858145EF608104E1
:103C2800F24062440561828001119397050126CA1A
:103C380006CE22CC4AC84EC652C4C187AE8463D7CA
:103C4800070803C5C193EF1040092A8439C90347FF
:103C580005009307000D6313F704834725004547C4
:103C6800638BE7046547639BE7021725020013058A
:103C7800E586EFF0313E130954009309B400172A82
:103C88000200130AEA868345090052850509EFF008
:103C9800713CE31A39FF2945EFF0113E2285EF0008
:103CA800B07C2165258DF2406244D2444249B24934
:103CB800224A056182800346650083457500172501
:103CC800020013056583EFF0F138C9BF93F71500BB
:103CD80085C317E6FF1F1306265597E5FF1F938533
:103CE800E55303C5C193EF70211413C5140065BFD4
:103CF80013F525004DD911391166130686A9894592
:103D080003C5C193EF10404513C5240069BF7971FD
:103D180022D44AD052CC06D626D24ECE56CA914785
:103D28002A842E89138A81936314F50483D7A50006
:103D38001306E1008545130550302399F1922307B6
:103D48000100238A0192EF70213883A7419291C71D
:103D5800DC4781C7CA852285829723208A00B25012
:103D6800225492540259F249624AD24A45618280E9
:103D780003270A00E31BF7FC9384219303D504006F
:103D880085455D3E03D504008545EF00C07383DAA1
:103D98000400C167F917639BFA0285449305E100A3
:103DA80013055041238A0192A383918223070100BE
:103DB800EF50F1288347E100A1E303C7019391473E
:103DC800E315F7F84D332388019241B783A9C192CF
:103DD80083C48192F9D003D5290011C99305E10064
:103DE800EF70E00809C54C455685EF80406FFD141B
:103DF80093F4F40FA109F9BF83A7019283C7470081
:103E0800898BC5DF9305000A0D45EF3040569305B1
:103E1800000A1145EF30A05581450545EF30205582
:103E28001306E10085451305503023079100EF7014
:103E3800A12961B7011117050000130525DF06CE7A
:103E480022CCEF1060761384C19385471306F100E6
:103E580085452300A40013054041A307F100EF6046
:103E680001077D55EF60E01D7D55EF8020647939AD
:103E7800EFF09F9CE123170500001305C5D2EFF072
:103E88007F9E17050000130525CAF92B034504007A
:103E98006244F240854505616F10201523A2B19256
:103EA80023A0A192828023A6B1922384A19282802A
:103EB800797106D622D426D24AD04ECE52CC83A7C8
:103EC80081931147639BE70483C7419399EB41446E
:103ED800B2502285225492540259F249624A4561ED
:103EE8008280B284368903A4C19283C7819203C7B2
:103EF800718299E35544E9BF83464400639AA6005A
:103F0800834654006396B60083466400638EE604D5
:103F1800FD1793F7F70F2104E9BF0947E389E7FA8B
:103F28002C001305504123040100EF505111834721
:103F380081008DCB930500020D45EF30404393057A
:103F480000031145EF30A04295450545EF3020426A
:103F5800854730008545130550302304F100EF7084
:103F6800A116B5B70931A5B703552400930561001B
:103F7800EF60F06F41D1938921934C4503D5090037
:103F8800EF60900905893DD503D5090001478146B1
:103F98002686ED45035A0400EF6060422AC64D4468
:103FA800E30805F22686CA852314410123159100EA
:103FB80097D0FF1FE78060A703D5090001462C00B2
:103FC800EF7060622A84E30505F0ED452800EF6094
:103FD800C056FDBD411126C2B684D4414AC006C6AA
:103FE80022C403C41600328903C6060022042E88A0
:103FF800518C8D6601CF9386B6A42D456309D406EE
:10400800B240224492440249410182809386D6A458
:104018006300D4028D66938626A2630BD400F576DE
:104028009386E65CA296C206C1820546636CD602F8
:104038000355A800CD3C1DC183A741922286224486
:1040480003A8070083455500B24003454500CA87C9
:10405800268702499244854641010288239004003C
:10406800014579BF8D669386B6A46318D40203D63A
:1040780001831D45E376C7F8198E63D3C7003E86D2
:104088008325C8002390C40042064182BA954A8518
:1040980097D0FF1FE7806099E1B78D679387A7A442
:1040A8006319F40091472390F40011468325C80052
:1040B800F9BF8D67938787906317F400894723902A
:1040C800F4000946E5B78D679387E7A4631AF400FF
:1040D800DC452390C40083C707002300F90049B7D3
:1040E8008D6793877790E31DF4F6C9BF011106CE5B
:1040F80022CC26CA4AC82317D10063130710DC4113
:104108002E89B28403C4170083C607008D67220472
:10411800558C9387D7A46307F4008D67938727A3EB
:10412800631DF4020355A900EFF0FF9F01E9014563
:10413800F2406244D24442490561828083A7419299
:1041480003A807008345550003454500A6871307C4
:10415800E100814622860298E1BF8D679387C7A454
:104168006314F4020357E10085473545E312F7FC71
:104178008347060013050008E36CF7FA03A741928A
:1041880058433E85029765B78D6793872790631ECE
:10419800F4028356E1008547EF60406D51F983C70B
:1041A800140003C704000356A900A207D98F83C6C9
:1041B800819203A7C192A5DE835527006384C504B5
:1041C800FD1693F6F60F2107FDB78D679387E7A4D1
:1041D800E31FF4F40357E10085473545E31AF7F484
:1041E8008347060013050008E364F7F4D845333520
:1041F800F00009052300F70003A74192584359B777
:104208002D453DB783A64192034547008345570096
:10421800054703A8060089466383E7008D460D66B7
:10422800A6871307E10013062690029809B74111E3
:1042380022C441641305F4FF938581B106C626C2E2
:104248004AC0EF80C0291305F4FF938581B0EF8041
:10425800002997E6FF1F9386E6FD4146E94517E5E5
:10426800FF1F1305E5FDEF80A01C97E4FF1F938453
:1042780024FDCC4C2A890945EFF0CFE2938741828F
:1042880003C6170013870182138481B2834607008F
:1042980083C507000347170083D7A40CA302C400F3
:1042A800A30AC40003D6A4132310F400A306E40051
:1042B80083D7A40DA30EE40003D7A41603D5A41036
:1042C8002318C40003D6A4142311F400231CE4000B
:1042D800854703D781812303F4002306D4002307ED
:1042E800F4002319C400230ED4002302B4002314BD
:1042F800A400230AB40023150400230B0400231D83
:104308000400230F04002312E40203D7A4189385A2
:1043180001B50D452310E4022303F402231104021E
:10432800EFF04FD8A2851D45BD3EB24022449244CD
:104338004A850249410182808D67938727A36301DB
:10434800F6048D679387D7A4631DF6008947639C9D
:10435800F500854735456397F600834707002380B6
:10436800F194014582808D472945E39DF5FE8547F7
:104378003545E399F6FE83470700A38EF192D5B73A
:1043880085473545E390F6FE83470700238FF19272
:10439800C9BF8D67938727A3630AF6028D67938742
:1043A800D7A40145631AF6008947639BF50083C7C4
:1043B80001942300F70005452390A600014582805B
:1043C8008D47E39BF5FE83C7D193E5B783C7E19398
:1043D800CDB70145828025E3DC41AE8803C80700DC
:1043E80083C71700A207B3E707010D681308F8A4ED
:1043F800639A0703914735486390F60403A5C800FC
:104408003283411111469A8506C697C0FF1FE7807F
:10441800C061054583A701958297B240014842854E
:10442800410182808D6893882890294863961701F6
:1044380085476F60A0432D484285828041654111C0
:10444800938501B67D1506C6EF806009B24097E6F0
:10445800FF1F9386E6F84146994517E5FF1F1305A8
:10446800E5F841016F70D07C23A8A19482800111E6
:10447800938501B622CC06CE2A84EF60E0390589FF
:104488001DCD014781460546ED452285EF50307325
:104498002AC615C597E7FF1F83D7E7FA2314F1004B
:1044A80085472315F1002300050001462C002285CD
:1044B800EF70601309C5ED452800EF600008F24071
:1044C800624405618280C167F917630CF5024111E6
:1044D80022C406C685472A84639AF50022852244A9
:1044E800B240938501B641016F70707F894763962A
:1044F800F5008545EFA0603375D1B24022444101F3
:104508008280828011456FE0CFE8411193962500A3
:10451800AA852D4506C697C0FF1FE780601AB240DE
:10452800014541018280011122CC26CA93962500BB
:104538002A84B284AA850146254506CE36C697C088
:10454800FF1FE780E017B2462686A285294597C057
:10455800FF1FE780E016F2406244D244014505613E
:104568008280011106CE22CC26CA4AC84EC6B71789
:10457800004003C47705B717004083C9B705B717CC
:10458800004003C98705B717004083C49705EFE0CB
:10459800CFB2B717004003C7A7059387A7051374C1
:1045A800F40F1367170093F9F90F1379F90F93F4C0
:1045B800F40F2380E70003C70700058B6DFFB717CB
:1045C800004003D5C705B7170040A38D3705B717B7
:1045D8000040238C2705B7170040A38C9704B71712
:1045E8000040A38B8704F2406244D2444249B24956
:1045F8000561828041119397050122C406C626C22F
:10460800C1872E8463DD0700EF00206D11C1A92D3D
:104618002165218DB240224492444101828093F762
:10462800150013C51500FDF79397250163D40702FC
:10463800EF10010DC13D37F60200130606E089654B
:1046480003C54195EF00503189673D8C131504016E
:104658004181C9B7916433F595004DDD1715020006
:10466800130545EBEFF0C12113060064916503C5FE
:104678004195EF00702E258CD1BF1D7149469715C5
:104688000200938565E9171502001305652586CE96
:10469800A2CC97C0FF1FE780404201E9171502002E
:1046A8001305C5E8EFF0C11D01A037F700E0795602
:1046B80010CBFD5654CBB7E700E0056423A0871064
:1046C8009306F00214C323A087180F1000001306E6
:1046D800C0038145480897C0FF1FE780803897E7E7
:1046E800FF1F938727213ECA896793870780231C6A
:1046F800F100B5472304F102A167938707E03ECE96
:10470800B7070105938707103ED0ED472312F10242
:1047180085472303F10297070000938747DFBEC44C
:1047280097070000938767E0BEC68567938717D011
:104738002315F10297F7FFFF938707ED3EDAB7F5E8
:10474800070097070000938707E23EDE8146970738
:104758000000938767DB7000E1051945BEC097C06C
:10476800FF1FE780E0F519466C001305E102EFF042
:10477800010DD24789C78357810163F3870001A0E0
:104788004808EF00F065AA8501C91715020013054E
:1047980025DBEFF0210C01A0F640664425618280FC
:1047A800411117050000130525E506C622C4EF00D0
:1047B800B05F138441952300A40019280345040021
:1047C8002244B24013060032896541016F00D018B7
:1047D800411106C673270080218B9387019001CB76
:1047E8007327008098C398435D9B731007800F1050
:1047F80000003717004013070704930670052300CD
:10480800D700930680FA2300D7000F100000B716D0
:10481800004003C6F6021376A60FA387C60223003C
:104828000700F32600809843218B558F731007806B
:1048380023A001900F10000073270080218B01CB6B
:104848007327008098C398435D9B731007800F10EF
:10485800000037170040130707049306700523006C
:10486800D700930680FA2300D7000F100000B71670
:10487800004003C6F60213662600A387C60223007B
:104888000700732700809C43A18BD98F7390078002
:1048980023A001900F1000000545EFE04F859D31E2
:1048A8001305407E81470147814605468545EFE06F
:1048B8004F8BB240014541016F10000782803D894E
:1048C8007D15954763EEA70E17170200130707DA41
:1048D8000A053A951C41011106CEBA9782872C0029
:1048E80013054030EF60816E2C000545EF40703DA8
:1048F800171502001305C5C6EFE09178F24005616F
:10490800828003C725008D4717150200130545C689
:10491800E316F7FEF24005616FE0917603C72500C4
:104928009547E31DF7FC83D7A5000D6613060620FF
:10493800914503C50184239BF182EF00F00117150F
:1049480002001305E5C3F9B703C725008D471715FE
:1049580002001305A5C3E313F7FA6DBF83C725004B
:104968001147171502001305E5C3638EE7021947BF
:104978006394E70283C5650017150200130545C453
:10498800EFE0516D8547300085451305503023040D
:10499800F100EF6061739DB71547E395E7FE1715C2
:1049A80002001305A5C3EFE0B16DE9BFF24083C56E
:1049B8002500171502001305E5C305616FE091692D
:1049C80082803688BA863E87631808028D67938787
:1049D800D7A483C606002A8EAE8832836319F600F0
:1049E80089476396F50085473545639EF6021A8622
:1049F800C68572856FF05F9485476314F8006FF081
:104A08005F998947631FF80041111306401F8945C4
:104A180003C5018406C6EF002074B2400145410178
:104A2800828001458280828001112305A100340023
:104A380021468545014506CE23140100A305010042
:104A480002C6EFF0EFC6F2400561828041119397EC
:104A5800050122C406C626C2C1872E8463DE07006C
:104A680003C501849D2C11C101242165218DB2400B
:104A7800224492444101828093F7150013C5150022
:104A8800FDF793F7450099CF83C701841307401FAB
:104A980081462146A14503D56183EF604132134524
:104AA8004400F1B793F785009DC30147894609463D
:104AB800814503D56183EF60910CAA851715020023
:104AC800130545B4EFE01159134584004DB713F5AC
:104AD800250051DD9384418303C50400B13783C7A2
:104AE80004007147850793F7F70F6373F700914741
:104AF80001452380F4000D3F1306007D894503C559
:104B08000184992D134524009DB701111705000054
:104B1800130505F406CE22CC26CAEF00F0289384AC
:104B2800018405442380A400700085451305503096
:104B380023068100EF60415917E6FF1F130606920E
:104B4800D54513056030EF60215817E6FF1F13069F
:104B58006692BD4513057030EF60015717160200C5
:104B6800130646B2D5450145EF50403C8D477000CD
:104B78009145130570402305F10023048100A30526
:104B8800810002C6A3040100EF506134300085455E
:104B980013050040EF50A133130691008545130516
:104BA8001040EF50C1321306A1008545130520407F
:104BB800EF50E1311306B100854513055040EF5021
:104BC800013199477000854505452306F100EFE05E
:104BD800DFC9EFF0CFE597E5FF1F9385258713859C
:104BE8008183EFF0AFAB624403C50400F240D244C6
:104BF80085450561DDAE41111305800406C697B0F1
:104C0800FF1FE780804AB71700409387870A9843B9
:104C18008D45130500201367072098C3EFE03F8DEB
:104C2800EFE0FFA117150200130585CBEFE0514512
:104C3800EFF0BFA4EFF0DFB6EF60A174EFF08F9F45
:104C4800E93597C0FF1FE780609B23AC05FE1C4138
:104C580091E7010001000CC18280BA8703A787FF92
:104C68006DFF23ACB7FE82801DC18346E5FF1307A5
:104C7800F00F9147639EE600411106C697D0FF1FCB
:104C8800E78040C0B24081473E8541018280954718
:104C98003E85828001E9014582800145B240224477
:104CA8004101828095654111938505D022C4C98D43
:104CB8002A842105C2054205C181418106C697D0D3
:104CC800FF1FE780C0AF71D9FD57232005002312CD
:104CD80085002303F5002105D1B71387C1951C432F
:104CE800411122C426C24AC006C601440149BA84F9
:104CF80089E7A165A52D0DC401A803C7E7FF6318BF
:104D0800A7021DC8A165D5249840832784FF63178F
:104D1800E40223AEF194FD57232C04FE230FF4FE86
:104D28002285B2402244924402494101828011E026
:104D38003E8983A787FF6DBF3E84E5BF232CF9FE1C
:104D4800D9BFA1CD411122C406C62A8497F7FF1FF7
:104D580083C7173E2E856375F400894763E887008B
:104D680021370D45B24022444101828083A785FF47
:104D780099E703C7E5FF9307F00F6305F700ED35E3
:104D88001545CDB7238F85FE1385C1957D3D2285B9
:104D98002244B240A165410189AC1545828023AE09
:104DA80001948280938741979C4399E33E85828052
:104DB80003D727006316B70003C70700E308A7FE59
:104DC800DC47E5B7BDCD797122D406D626D24AD0C4
:104DD8004ECE01444147B3D78540858BB1CF1205EC
:104DE800314722953305E5029387419603A90700C9
:104DF8008544B3948400C204C180BE892A990327DC
:104E0800090011C7032549002EC60297B24531474C
:104E18003304E40283A709003E941C4489E7232055
:104E2800090023220900B2502254A58D0259925438
:104E3800F2492E85456182800504E31EE4F8814429
:104E4800DDB72E85828041111397050122C406C65D
:104E580026C24AC041872E84635E0700BD3D11C14A
:104E68002135A1673D8C2285B240224492440249F3
:104E780041018280EDD9AA8701474146B356E440F3
:104E8800858A9DCA9207BA97B146B387D702938697
:104E9800419603A906008544B394E400C204C18086
:104EA8003E9983270900032549008297232009009A
:104EB80023220900258C45BF0507E311C7FC81445F
:104EC800D5BF97F7FF1F9387E7229C53411122C450
:104ED80006C61384418499C782971C403E9523A235
:104EE800A18429A09387C1969C43FDF70840B74742
:104EF80003009387D73F3305F502B7A726009387AA
:104F080037ECB24022443E9523A2A184410182801D
:104F180079C99387C1969C43797122D426D24AD005
:104F28004ECE52CC56CA5AC806D65EC63A8AB689FA
:104F3800328BAE8A2A898297938741969843BE849A
:104F48000144B146C147B30BD4023306770110427E
:104F580051E6C165938505F0414597D0FF1FE7806D
:104F680000861DE597F7FF1F9387C7189C5B2D45A3
:104F780089C71145814582972D45B25022549254D4
:104F88000259F249624AD24A424BB24B4561828089
:104F98009387419798431DEF23AAA1962300050004
:104FA8009C40054733178700232605002324650105
:104FB8002311E50023224501DE9723A0270123A220
:104FC800570123A447010145E38909FA2380890091
:104FD8006DB73E875C47F5FF48C7C9B70504E314BA
:104FE800F4F6214559BF0945828097F7FF1F83C70B
:104FF8003714637FF500138701969317150008434C
:105008003E9583570500DD8D2310B500014582804C
:105018000D45828097F7FF1F83C797116371F502CB
:105028001387019693171500084393C5F5FF3E951E
:1050380083570500FD8D2310B500014582800D457D
:105048008280130705FF1377F70FFD4763E5E70A2B
:10505800B146B306D5029387419698438947369758
:10506800184359CB011122CC4EC60544935945002B
:105078003D893315A40013140501418026CA4E85C5
:10508800AE84A2854AC806CE313B2A89814721CD04
:10509800A2854E8541379387C1969C43829797F79F
:1050A800FF1F83D7A70D338797022A8481461306EB
:1050B8000064B3B7970213050732B335E500BE9510
:1050C800EFD04F91B307850097F6FF1F9386860AA6
:1050D8003E87D44263E4A70063E4D7003387D74010
:1050E8002324E9008147F2406244D2444249B2494C
:1050F8003E850561828089473E858280011126CAE6
:1051080006CE22CC4AC84EC6BD47894463EEA702E4
:1051180031473307E502938741969C438944BA9700
:105128009C439DC305443314A400420441802E8946
:105138000145A285EFF01FC7AA89814411C5A28540
:105148000145C93D23A42901F2406244268542490C
:10515800D244B2490561828097F7FF1F83C757FD84
:105168006364F5000145828001119387C19656C298
:1051780083AA070006CE22CC26CA4AC84EC652C405
:10518800638E0A0A17FAFF1F130ACAFE83244A000D
:10519800B74736FE938707C8AE8997F5FF1F83D5B3
:1051A800E5FDBE94B387C5022A8432898146B3B52A
:1051B800C50213850732B337F50013060064BE95A0
:1051C800EFD04F8163ECA406829A97F5FF1F83D531
:1051D800E5FAB3872503AA84130600648146B3B5AC
:1051E800250313850732B337F500BE95EFC09FFE40
:1051F800B3079500BE8403274A0063E4A70063E46D
:10520800E700B384E740CE852285EFF0BFB901C53A
:1052180004C505452DA0936504F0C205C18141452B
:1052280097C0FF1FE780A05905E597F7FF1F9387F1
:1052380067EC9C5B81C7A285114582970145F240C6
:105248006244D2444249B249224A924A0561828064
:10525800938741979C438DE323AAA19685472326EC
:10526800050004C52311350123008500A300F500BE
:105278002322050079BFBA87D84775FFC8C7F9BF89
:1052880049C9797122D426D24AD04ECE52CC56CAB8
:105298005EC662C466C206D65AC83689328AAE89E4
:1052A800AA844144314C938A4196854C930B000360
:1052B800330B840303A70A005A971C43B1E793757D
:1052C800F400B395BC0013554440C2055286C18111
:1052D8001375F50F51350DC983A70A000145DA97F3
:1052E80084C323A237016304090023008900B25054
:1052F800225492540259F249624AD24A424BB24B62
:10530800224C924C456182800504E31374FB2145CD
:10531800F9BF09458280411122C426C24AC006C687
:105328002A842E89B2840D3DCA852285EFF09FA775
:1053380005CD97F5FF1F83D565E4B38795022A84C9
:10534800130600648146B3B5950213850732B33757
:10535800F500BE95EFC01FE848C00145B2402244A1
:1053680092440249410182802145CDBF411122C4A6
:1053780026C24AC006C62A892E84EFF0BFA2AA8494
:1053880019C123110500A2854A85EFF0BFC897F718
:10539800FF1F83C7E7D96397270183D781965D8C61
:1053A80023948196014591E01945B24022449244E4
:1053B8000249410182809307F00263E6A704411184
:1053C800B14722C43304F50226C2938441969C4017
:1053D80006C6A297984389470DC39377F50085457C
:1053E800B395F500C205C181118149379C40A29748
:1053F80023A0070023A207008147B2402244924419
:105408003E854101828089473E858280411106C6DA
:1054180022C4EFF03F9911E50145B2402244410111
:1054280082809387C1969C430045829797F7FF1F18
:10543800938747D46368A402D843B74636FE938659
:1054480006C83305A4403697E378E5FC13070064E3
:10545800B335E50203D6870081463305E502EFC080
:105468007FD765BFD8433A94C1BF411106C623A868
:10547800A1960295B24097F7FF1F23A7A7CC014535
:1054880041018280994763E9B7008A0597F7FF1FB2
:10549800938787CCBE9588C182804111714681452A
:1054A80017F5FF1F130545CB06C623AA019623A8A7
:1054B800019623A6019697B0FF1FE780805A13062E
:1054C8008002814517F5FF1F130585C697B0FF1F9A
:1054D800E7802059EF50317497F7FF1F83C7F7C251
:1054E80013D527008D8B3E958D473305F5028545ED
:1054F80039051375F50F97F7FF1F238CA7C2994736
:105508003305F5021305052497C0FF1FE780202BFC
:1055180023A2A19659C5994717F6FF1F034666C1EE
:105528003306F60281451306062497B0FF1FE7806D
:105538004053938741969C439387072423ACF19665
:1055480017F7FF1F0347E7BE0A07BA9723A0F1968C
:10555800EFF0FF840D2393878197944397F7FF1FFC
:1055680083C717BD13972700369717060000130641
:10557800A68510C3138717001377F70F0A07369706
:10558800170600001306668C10C3138737008907B7
:1055980093F7F70F8A0797F5FF1FA38BE5B8B69720
:1055A80090C3B2404101828097F7FF1F83C757B865
:1055B80017F7FF1F0347E7B763F1E70213878197E0
:1055C80018439386170017F6FF1FA303D6B69396C2
:1055D8002700369708C33E8582809307F00FE5BF02
:1055E8001C416389071641777D8FB70600208947DC
:1055F8006313D71603574500630F0714411122C4DC
:1056080019462A849305F00F690506C697B0FF1F4F
:10561800E780404F05478D476309E5121C4481CB5D
:105628005858994763030712185C6300071213065A
:10563800C003814517F5FF1F1305C5AB97B0FF1FC2
:10564800E78020421306C003A28517F5FF1F130544
:1056580065AA97B0FF1FE780403D17F7FF1F035764
:1056680027AA97F7FF1F9387E7A819E713070010E2
:1056780097F6FF1F2396E6A817F7FF1F034767A8AB
:1056880011E7054797F6FF1F238DE6A617F7FF1FBB
:10569800035747A711E76D4797F6FF1F2394E6A620
:1056A80017F7FF1F0347F7A511E7154797F6FF1FE1
:1056B800A389E6A417F7FF1F0347E7A411E70547E7
:1056C80097F6FF1F2381E6A417F7FF1F0347B7A329
:1056D80019E703C7F70097F6FF1FA386E6A217F797
:1056E800FF1F034767A211E7354797F6FF1F238D72
:1056F800E6A017F7FF1F034777A119E713078002F2
:1057080097F6FF1FA384E6A017F7FF1F0347D79F4D
:1057180019E71307D00297F6FF1FA387E69E0347F2
:10572800840119E71307C00397F6FF1F2380E69E3D
:105738009C5791C7829797F7FF1F239FA79EFD57F6
:10574800A38DF1AAEFF07FD58147B24022443E8570
:105758004101828089473E85828001114EC697F9B2
:10576800FF1F938929A183A7090006CE22CC26CA48
:105778004AC852C4829713090064B335250303DA73
:1057880089008146528633052503EFC0BFA497F7E9
:10579800FF1F9387E799804FAA8401456306940207
:1057A80033858440636E940003A549005286814680
:1057B800B335A9023305A902EFC0DFA1018D2695F3
:1057C80097F7FF1F23A29798F2406244D2444249B8
:1057D800B249224A05618280011122CC0A852E84B1
:1057E800414697F501009385257406CEEFE0210523
:1057F800180806043A94035504FF97F7FF1F83D748
:105808000798F2406244AA9737450F00130505240C
:105818003355F5020561828097F7FF1F83D72796D6
:1058280051471D45637CF702794719456378F702AC
:105838001307200315456373F7021307B0041145D6
:10584800637EF700130740060D456379F7001307D9
:10585800600909456374F70013B5B70F8280011119
:1058680022CC06CE2A842EC6EFF0AFE5B245F24030
:10587800818D33A5A502229562441375F50F056144
:105888008280011122CC06CE2A842EC6EFF06FE367
:10589800B245F240818D33A5A502229562444205A6
:1058A800418105618280011122CC06CE2A842EC650
:1058B800EFF02FE1B245F240818D33B5A502229574
:1058C80062440561828097F7FF1F9387A7829857E4
:1058D80039CB411122C426C206C6BE84029717F7E7
:1058E800FF1F035767852A8415CBBA876373A70000
:1058F800AA87C207C183BA866373E400A286C20678
:10590800C182958F5147635BF700DC5491C382973E
:10591800EFF0105F97F7FF1F23908782B240224471
:10592800924441018280828097E7FF1F9387877C9A
:10593800DC57011106CEAA8581C72AC68297B245CF
:10594800D1C19C410545A5CFDC41B5CB83D78500A6
:10595800BDC783D7A500A5C783C7C500ADE341462A
:1059680017F5FF1F1305058197B0FF1FE780E00BB0
:1059780097F7FF1F938707809C4323A6F19697E725
:10598800FF1F83C7B7788DE79307800217E5FF1FCE
:105998000355C57E3305F50237460F001306062466
:1059A80081468145EFC01F8397E7FF1FA380A77635
:1059B800170500001305A5DAEFF03FAB0145F240EB
:1059C8000561828097E7FF1F83C7277413978701B4
:1059D80061876354070497E7FF1F23A9077697B7E2
:1059E800FF1F9387474517E7FF1F2325F7787D5744
:1059F80097E7FF1F23A2E778B7873200938727A18D
:105A080097E6FF1F23ACF67697E7FF1F238A0776F2
:105A1800B7C7004023A4E726A1BF13F7170005CF97
:105A2800B7872003938707D017E7FF1F2328F7744A
:105A3800B707C0A817E7FF1F2320F77497B7FF1F02
:105A48009387874217E7FF1F2326F77297E7FF1F01
:105A58002388077231BF617797E6FF1F2390E672AC
:105A680081CB9307003217E7FF1F231AF770C9B7D6
:105A780093072003CDBF011122CC17E4FF1F1304A5
:105A88006467084406CE26CA4AC801E90545F240BB
:105A98006244D2444249056182805C58E5DB185C67
:105AA80075D77000854582971844B247E300F7FE22
:105AB8009305E00417E5FF1F0355856497C0FF1F92
:105AC800E780E0CF17E7FF1F2324A76861D117E617
